{
  "contractName": "KittyBase",
  "abi": [
    {
      "anonymous": false,
      "inputs": [
        {
          "indexed": false,
          "name": "owner",
          "type": "address"
        },
        {
          "indexed": false,
          "name": "geneticCode",
          "type": "uint256"
        },
        {
          "indexed": false,
          "name": "_parent1_id",
          "type": "uint32"
        },
        {
          "indexed": false,
          "name": "_parent2_id",
          "type": "uint32"
        },
        {
          "indexed": false,
          "name": "_id",
          "type": "uint32"
        }
      ],
      "name": "Birth",
      "type": "event"
    },
    {
      "constant": false,
      "inputs": [
        {
          "name": "_owner",
          "type": "address"
        },
        {
          "name": "_geneticCode",
          "type": "uint256"
        },
        {
          "name": "_parent1_id",
          "type": "uint32"
        },
        {
          "name": "_parent2_id",
          "type": "uint32"
        },
        {
          "name": "_id",
          "type": "uint32"
        },
        {
          "name": "_generation",
          "type": "uint16"
        }
      ],
      "name": "createKitty",
      "outputs": [
        {
          "name": "",
          "type": "uint256"
        }
      ],
      "payable": false,
      "stateMutability": "nonpayable",
      "type": "function"
    },
    {
      "constant": true,
      "inputs": [
        {
          "name": "_id",
          "type": "uint32"
        }
      ],
      "name": "getKittyById",
      "outputs": [
        {
          "name": "geneticCode",
          "type": "uint256"
        },
        {
          "name": "parent1_id",
          "type": "uint32"
        },
        {
          "name": "parent2_id",
          "type": "uint32"
        },
        {
          "name": "id",
          "type": "uint32"
        },
        {
          "name": "generation",
          "type": "uint16"
        }
      ],
      "payable": false,
      "stateMutability": "view",
      "type": "function"
    }
  ],
  "bytecode": "0x608060405234801561001057600080fd5b50610553806100206000396000f3fe60806040526004361061004c576000357c0100000000000000000000000000000000000000000000000000000000900463ffffffff16806354b3efd5146100515780636c16a440146100fe575b600080fd5b34801561005d57600080fd5b506100e8600480360360c081101561007457600080fd5b81019080803573ffffffffffffffffffffffffffffffffffffffff16906020019092919080359060200190929190803563ffffffff169060200190929190803563ffffffff169060200190929190803563ffffffff169060200190929190803561ffff16906020019092919050505061019b565b6040518082815260200191505060405180910390f35b34801561010a57600080fd5b5061013d6004803603602081101561012157600080fd5b81019080803563ffffffff1690602001909291905050506103b5565b604051808681526020018563ffffffff1663ffffffff1681526020018463ffffffff1663ffffffff1681526020018363ffffffff1663ffffffff1681526020018261ffff1661ffff1681526020019550505050505060405180910390f35b60006101a56104d0565b60c0604051908101604052808881526020018763ffffffff1681526020018663ffffffff1681526020018563ffffffff1681526020018461ffff1681526020014267ffffffffffffffff16815250905060008082908060018154018082558091505090600182039060005260206000209060020201600090919290919091506000820151816000015560208201518160010160006101000a81548163ffffffff021916908363ffffffff16021790555060408201518160010160046101000a81548163ffffffff021916908363ffffffff16021790555060608201518160010160086101000a81548163ffffffff021916908363ffffffff160217905550608082015181600101600c6101000a81548161ffff021916908361ffff16021790555060a082015181600101600e6101000a81548167ffffffffffffffff021916908367ffffffffffffffff160217905550505090507fc7e23bce522c17d836c9af0d80ee3018763b114a9f469c23314cf481bd15d4d18989898989604051808673ffffffffffffffffffffffffffffffffffffffff1673ffffffffffffffffffffffffffffffffffffffff1681526020018581526020018463ffffffff1663ffffffff1681526020018363ffffffff1663ffffffff1681526020018263ffffffff1663ffffffff1681526020019550505050505060405180910390a18063ffffffff16925050509695505050505050565b6000806000806000808663ffffffff168154811015156103d157fe5b90600052602060002090600202016000015460008763ffffffff168154811015156103f857fe5b906000526020600020906002020160010160009054906101000a900463ffffffff1660008863ffffffff1681548110151561042f57fe5b906000526020600020906002020160010160049054906101000a900463ffffffff1660008963ffffffff1681548110151561046657fe5b906000526020600020906002020160010160089054906101000a900463ffffffff1660008a63ffffffff1681548110151561049d57fe5b9060005260206000209060020201600101600c9054906101000a900461ffff169450945094509450945091939590929450565b60c06040519081016040528060008152602001600063ffffffff168152602001600063ffffffff168152602001600063ffffffff168152602001600061ffff168152602001600067ffffffffffffffff168152509056fea165627a7a7230582011adac8487ea201cd1bdeb99c828eae811bc26316fec9850729abf867afddd2d0029",
  "source": "pragma solidity ^0.5.0;\n\ncontract KittyBase {\n\t\n\tstruct Kitty {\n\t\tuint256 geneticCode; // ili string kako smo pricali\n\t\tuint32 parent1_id;\n\t\tuint32 parent2_id;\n\t\tuint32 id;\n\t\tuint16 generation;\n\t\tuint64 birthTime;\n\t}\n\n\tevent Birth(address owner, uint256 geneticCode, uint32 _parent1_id, uint32 _parent2_id, uint32 _id);\n\n\tfunction createKitty(\n\t\taddress _owner,\n\t\tuint256 _geneticCode,\n\t\tuint32 _parent1_id,\n\t\tuint32 _parent2_id,\n\t\tuint32 _id,\n\t\tuint16 _generation) \n\t\tpublic\n\t\treturns (uint)\n\t{\n\t\tKitty memory _kitty = Kitty({\n\t\t\tgeneticCode: _geneticCode,\n\t\t\tparent1_id: _parent1_id,\n\t\t\tparent2_id: _parent2_id,\n\t\t\tid: _id,\n\t\t\tgeneration: _generation,\n\t\t\tbirthTime: uint64(now)\n\t\t});\n\t\tuint32 _kittyId = uint32(kitties.push(_kitty));\n\t\t// emit Birth event\n\t\temit Birth(_owner, _geneticCode, _parent1_id, _parent2_id, _id);\n\t\t// todo assign ownership\n\t\treturn _kittyId;\n\t}\n\n\tfunction getKittyById(uint32 _id)\n\t\tview\n\t\tpublic\n\t\treturns (\n\t\tuint256 geneticCode,\n\t\tuint32 parent1_id,\n\t\tuint32 parent2_id,\n\t\tuint32 id,\n\t\tuint16 generation)\n\t{\n\t\treturn (kitties[_id].geneticCode,\n\t\t\t\tkitties[_id].parent1_id,\n\t\t\t\tkitties[_id].parent2_id,\n\t\t\t\tkitties[_id].id,\n\t\t\t\tkitties[_id].generation);\n\t}\n\n\t/// @dev An array containing the Kitty struct for all Kitties in existence. The ID\n    ///  of each cat is actually an index into this array.\n    Kitty[] kitties;\n}",
  "sourcePath": "/home/pago/Documents/Faks/RASSUS/CryptoKitties/contracts/KittyBase.sol",
  "compiler": {
    "name": "solc",
    "version": "0.5.0+commit.1d4f565a.Emscripten.clang"
  },
  "schemaVersion": "3.0.1",
  "updatedAt": "2019-01-11T16:56:15.938Z",
  "devdoc": {
    "methods": {}
  },
  "userdoc": {
    "methods": {}
  }
}