{
  "contractName": "KittyBase",
  "abi": [
    {
      "constant": false,
      "inputs": [
        {
          "name": "_geneticCode",
          "type": "uint256"
        },
        {
          "name": "_parent1_id",
          "type": "uint32"
        },
        {
          "name": "_parent2_id",
          "type": "uint32"
        },
        {
          "name": "_id",
          "type": "uint32"
        },
        {
          "name": "_generation",
          "type": "uint16"
        }
      ],
      "name": "createKitty",
      "outputs": [
        {
          "name": "",
          "type": "uint256"
        }
      ],
      "payable": false,
      "stateMutability": "nonpayable",
      "type": "function",
      "signature": "0xadf88781"
    },
    {
      "constant": true,
      "inputs": [
        {
          "name": "_id",
          "type": "uint32"
        }
      ],
      "name": "getKittyById",
      "outputs": [
        {
          "name": "geneticCode",
          "type": "uint256"
        },
        {
          "name": "parent1_id",
          "type": "uint32"
        },
        {
          "name": "parent2_id",
          "type": "uint32"
        },
        {
          "name": "id",
          "type": "uint32"
        },
        {
          "name": "generation",
          "type": "uint16"
        }
      ],
      "payable": false,
      "stateMutability": "view",
      "type": "function",
      "signature": "0x6c16a440"
    }
  ],
  "bytecode": "0x608060405234801561001057600080fd5b5061047f806100206000396000f3fe60806040526004361061004c576000357c0100000000000000000000000000000000000000000000000000000000900463ffffffff1680636c16a44014610051578063adf88781146100ee575b600080fd5b34801561005d57600080fd5b506100906004803603602081101561007457600080fd5b81019080803563ffffffff16906020019092919050505061017b565b604051808681526020018563ffffffff1663ffffffff1681526020018463ffffffff1663ffffffff1681526020018363ffffffff1663ffffffff1681526020018261ffff1661ffff1681526020019550505050505060405180910390f35b3480156100fa57600080fd5b50610165600480360360a081101561011157600080fd5b8101908080359060200190929190803563ffffffff169060200190929190803563ffffffff169060200190929190803563ffffffff169060200190929190803561ffff169060200190929190505050610296565b6040518082815260200191505060405180910390f35b6000806000806000808663ffffffff1681548110151561019757fe5b90600052602060002090600202016000015460008763ffffffff168154811015156101be57fe5b906000526020600020906002020160010160009054906101000a900463ffffffff1660008863ffffffff168154811015156101f557fe5b906000526020600020906002020160010160049054906101000a900463ffffffff1660008963ffffffff1681548110151561022c57fe5b906000526020600020906002020160010160089054906101000a900463ffffffff1660008a63ffffffff1681548110151561026357fe5b9060005260206000209060020201600101600c9054906101000a900461ffff169450945094509450945091939590929450565b60006102a06103fc565b60c0604051908101604052808881526020018763ffffffff1681526020018663ffffffff1681526020018563ffffffff1681526020018461ffff1681526020014267ffffffffffffffff168152509050600081908060018154018082558091505090600182039060005260206000209060020201600090919290919091506000820151816000015560208201518160010160006101000a81548163ffffffff021916908363ffffffff16021790555060408201518160010160046101000a81548163ffffffff021916908363ffffffff16021790555060608201518160010160086101000a81548163ffffffff021916908363ffffffff160217905550608082015181600101600c6101000a81548161ffff021916908361ffff16021790555060a082015181600101600e6101000a81548167ffffffffffffffff021916908367ffffffffffffffff1602179055505050505095945050505050565b60c06040519081016040528060008152602001600063ffffffff168152602001600063ffffffff168152602001600063ffffffff168152602001600061ffff168152602001600067ffffffffffffffff168152509056fea165627a7a7230582034f53fdb5519f3dabebe37bc7945f23db580fd92b1b86e4da7c4640cbb719e520029",
  "source": "pragma solidity ^0.5.0;\n\ncontract KittyBase {\n\t\n\tstruct Kitty {\n\t\tuint256 geneticCode; // ili string kako smo pricali\n\t\tuint32 parent1_id;\n\t\tuint32 parent2_id;\n\t\tuint32 id;\n\t\tuint16 generation;\n\t\tuint64 birthTime;\n\t}\n\n\tfunction createKitty(\n\t\tuint256 _geneticCode,\n\t\tuint32 _parent1_id,\n\t\tuint32 _parent2_id,\n\t\tuint32 _id,\n\t\tuint16 _generation) \n\t\tpublic\n\t\treturns (uint)\n\t{\n\t\tKitty memory _kitty = Kitty({\n\t\t\tgeneticCode: _geneticCode,\n\t\t\tparent1_id: _parent1_id,\n\t\t\tparent2_id: _parent2_id,\n\t\t\tid: _id,\n\t\t\tgeneration: _generation,\n\t\t\tbirthTime: uint64(now)\n\t\t});\n\t\tkitties.push(_kitty);\n\t\t// todo Birth event\n\t\t// todo assign ownership\n\t}\n\n\tfunction getKittyById(uint32 _id)\n\t\tview\n\t\tpublic\n\t\treturns (\n\t\tuint256 geneticCode,\n\t\tuint32 parent1_id,\n\t\tuint32 parent2_id,\n\t\tuint32 id,\n\t\tuint16 generation)\n\t{\n\t\treturn (kitties[_id].geneticCode,\n\t\t\t\tkitties[_id].parent1_id,\n\t\t\t\tkitties[_id].parent2_id,\n\t\t\t\tkitties[_id].id,\n\t\t\t\tkitties[_id].generation);\n\t}\n\n\t/// @dev An array containing the Kitty struct for all Kitties in existence. The ID\n    ///  of each cat is actually an index into this array.\n    Kitty[] kitties;\n}",
  "sourcePath": "/home/pago/Documents/Faks/RASSUS/CryptoKitties/contracts/KittyBase.sol",
  "compiler": {
    "name": "solc",
    "version": "0.5.0+commit.1d4f565a.Emscripten.clang"
  },
  "schemaVersion": "3.0.1",
  "updatedAt": "2019-01-10T14:18:35.514Z",
  "devdoc": {
    "methods": {}
  },
  "userdoc": {
    "methods": {}
  }
}